:100000000C942A000C9434000C9434000C943400AA
:100010000C9434000C9434000C9434000C94340090
:100020000C9434000C9434000C9434000C94340080
:100030000C9434000C9434000C9434000C94340070
:100040000C9434000C9434000C9434000C94340060
:100050000C94340011241FBECFE5D8E0DEBFCDBF25
:100060000E94C2020C944B030C940000843008F0F0
:1000700072C0683008F06FC0423008F06CC0813048
:1000800001F130F08230B1F1833009F44CC00895B1
:10009000413059F42AB381E090E002C0880F991FE3
:1000A0006A95E2F7822B8ABB08952AB381E090E03B
:1000B00002C0880F991F6A95E2F7809582238ABB58
:1000C0000895413059F427B381E090E002C0880FD1
:1000D000991F6A95E2F7822B87BB089527B381E0C9
:1000E00090E002C0880F991F6A95E2F780958223FD
:1000F00087BB0895413059F424B381E090E002C0F9
:10010000880F991F6A95E2F7822B84BB089524B368
:1001100081E090E002C0880F991F6A95E2F7809510
:10012000822384BB0895413059F421B381E090E0EB
:1001300002C0880F991F6A95E2F7822B81BB089550
:1001400021B381E090E002C0880F991F6A95E2F721
:100150008095822381BB0895843008F072C0683096
:1001600008F06FC0423008F06CC0813001F130F00F
:100170008230B1F1833009F44CC00895413059F414
:100180002BB381E090E002C0880F991F6A95E2F7D7
:10019000822B8BBB08952BB381E090E002C0880FC7
:1001A000991F6A95E2F7809582238BBB08954130B1
:1001B00059F428B381E090E002C0880F991F6A9536
:1001C000E2F7822B88BB089528B381E090E002C05B
:1001D000880F991F6A95E2F78095822388BB08955E
:1001E000413059F425B381E090E002C0880F991F97
:1001F0006A95E2F7822B85BB089525B381E090E0F4
:1002000002C0880F991F6A95E2F78095822385BB0B
:100210000895413059F422B381E090E002C0880F84
:10022000991F6A95E2F7822B82BB089522B381E081
:1002300090E002C0880F991F6A95E2F780958223AB
:1002400082BB08958430C0F56830B0F54115510582
:1002500099F1813089F028F08230C9F0833011F1B2
:10026000089589B390E002C0959587956A95E2F765
:100270008170FA018083089586B390E002C095955D
:1002800087956A95E2F78170FA018083089583B3B8
:1002900090E002C0959587956A95E2F78170FA0122
:1002A0008083089580B390E002C0959587956A9504
:1002B000E2F78170FA0180830895CF93C82F80FF01
:1002C00006C041E064E080E00E94AC0005C040E070
:1002D00064E080E00E94AC00C1FF06C041E065E040
:1002E00080E00E94AC0005C040E065E080E00E9434
:1002F000AC00C2FF06C041E066E080E00E94AC00B6
:1003000005C040E066E080E00E94AC00C3FF06C08C
:1003100041E067E080E00E94AC0005C040E067E09B
:1003200080E00E94AC00CF910895CF93C82F40E0A9
:1003300061E081E00E94AC0040E062E081E00E9468
:10034000AC008C2F82958F700E945D0141E063E0CC
:1003500081E00E94AC008FE99FE00197F1F700C0B7
:10036000000040E063E081E00E94AC008C2F0E941E
:100370005D0141E063E081E00E94AC008FE99FE015
:100380000197F1F700C0000040E063E081E00E94C7
:10039000AC00CF91089541E061E081E00E94360019
:1003A00041E062E081E00E94360041E063E081E0EC
:1003B0000E94360041E064E080E00E94360041E0A7
:1003C00065E080E00E94360041E066E080E00E9447
:1003D000360041E067E080E00E9436002FE785EBC1
:1003E00091E0215080409040E1F700C0000040E0E3
:1003F00061E081E00E94AC0040E062E081E00E94A8
:10040000AC0082E00E945D0141E063E081E00E9477
:10041000AC008FE99FE00197F1F700C0000040E0D9
:1004200063E081E00E94AC0088E20E94950190EFB9
:100430009A95F1F78FE00E94950120EF2A95F1F748
:1004400081E00E9495018FE39FE10197F1F700C0E1
:10045000000086E00E9495010895CF93C82F41E0E7
:1004600061E081E00E94AC0040E062E081E00E9437
:10047000AC008C2F82958F700E945D0141E063E09B
:1004800081E00E94AC008FE99FE00197F1F700C086
:10049000000040E063E081E00E94AC008C2F0E94ED
:1004A0005D0141E063E081E00E94AC008FE99FE0E4
:1004B0000197F1F700C0000040E063E081E00E9496
:1004C000AC00CF9108958F929F92AF92BF92CF923E
:1004D000DF92EF92FF92CF934B015C01672B682B69
:1004E000692B69F580E30E942D0238C0C501B40173
:1004F000A70196010E9429032115310541055105E7
:1005000071F080E3820F0E942D02C501B401A701A2
:1005100096010E9429034B015C01C1E005C0C13076
:1005200019F480E30E942D02C701B6012AE030E0F1
:1005300040E050E00E94290369017A010AC00F2EB1
:10054000C12CFAECDF2EFAE9EF2EFBE3FF2EF02DA3
:10055000C0E0C114D104E104F10441F6CF91FF9051
:10056000EF90DF90CF90BF90AF909F908F900895C5
:1005700081E00E9495018FE39FE10197F1F700C0B0
:1005800000000895CF93DF9300D0CDB7DEB70E946F
:10059000CB0160E070E0CB010E94630240E060E0CC
:1005A00081E00E94360040E066E083E00E94360071
:1005B000C12CD12C7601AE014F5F5F4F60E081E02E
:1005C0000E9422018FE39FE10197F1F700C0000034
:1005D00089818130B9F499E0C916D104E104F104AC
:1005E00088F48FE39FE10197F1F700C000009FEFCF
:1005F000C91AD90AE90AF90A0E94B802C701B60164
:100600000E946302AE014E5F5F4F66E083E00E948E
:1006100022018FE39FE10197F1F700C000008A817A
:10062000813049F6C114D104E104F10421F28FE3D1
:100630009FE10197F1F700C0000091E0C91AD108CD
:10064000E108F1080E94B802C701B6010E946302E6
:10065000B2CFA1E21A2EAA1BBB1BFD010DC0AA1F1F
:10066000BB1FEE1FFF1FA217B307E407F50720F01B
:10067000A21BB30BE40BF50B661F771F881F991F96
:100680001A9469F760957095809590959B01AC01DF
:0A069000BD01CF010895F894FFCFDB
:00000001FF
